{
  "_format": "hh-sol-artifact-1",
  "contractName": "theLotteryContract",
  "sourceName": "contracts/theLotteryContract.sol",
  "abi": [
    {
      "inputs": [
        {
          "internalType": "uint256",
          "name": "entranceFee",
          "type": "uint256"
        },
        {
          "internalType": "uint256",
          "name": "interval",
          "type": "uint256"
        },
        {
          "internalType": "address",
          "name": "VRFCoordinatorV2",
          "type": "address"
        },
        {
          "internalType": "bytes32",
          "name": "gasLane",
          "type": "bytes32"
        },
        {
          "internalType": "uint64",
          "name": "subscriptionId",
          "type": "uint64"
        },
        {
          "internalType": "uint32",
          "name": "callbackGasLimit",
          "type": "uint32"
        }
      ],
      "stateMutability": "nonpayable",
      "type": "constructor"
    },
    {
      "inputs": [
        {
          "internalType": "address",
          "name": "have",
          "type": "address"
        },
        {
          "internalType": "address",
          "name": "want",
          "type": "address"
        }
      ],
      "name": "OnlyCoordinatorCanFulfill",
      "type": "error"
    },
    {
      "inputs": [],
      "name": "lotteryNotOpen",
      "type": "error"
    },
    {
      "inputs": [],
      "name": "notEnoughEthSpent",
      "type": "error"
    },
    {
      "inputs": [],
      "name": "transferFailed",
      "type": "error"
    },
    {
      "inputs": [],
      "name": "upkeepNotNeeded",
      "type": "error"
    },
    {
      "anonymous": false,
      "inputs": [
        {
          "indexed": true,
          "internalType": "address",
          "name": "player",
          "type": "address"
        }
      ],
      "name": "LotteryEntered",
      "type": "event"
    },
    {
      "anonymous": false,
      "inputs": [
        {
          "indexed": true,
          "internalType": "uint256",
          "name": "requestId",
          "type": "uint256"
        }
      ],
      "name": "RequestedLotteryWinner",
      "type": "event"
    },
    {
      "anonymous": false,
      "inputs": [
        {
          "indexed": true,
          "internalType": "address",
          "name": "winner",
          "type": "address"
        }
      ],
      "name": "winnerPicked",
      "type": "event"
    },
    {
      "inputs": [],
      "name": "NUM_WORDS",
      "outputs": [
        {
          "internalType": "uint32",
          "name": "",
          "type": "uint32"
        }
      ],
      "stateMutability": "view",
      "type": "function"
    },
    {
      "inputs": [],
      "name": "REQUEST_CONFIRMATIONS",
      "outputs": [
        {
          "internalType": "uint16",
          "name": "",
          "type": "uint16"
        }
      ],
      "stateMutability": "view",
      "type": "function"
    },
    {
      "inputs": [
        {
          "internalType": "bytes",
          "name": "",
          "type": "bytes"
        }
      ],
      "name": "checkUpKeep",
      "outputs": [
        {
          "internalType": "bool",
          "name": "upkeepNeeded",
          "type": "bool"
        },
        {
          "internalType": "bytes",
          "name": "",
          "type": "bytes"
        }
      ],
      "stateMutability": "view",
      "type": "function"
    },
    {
      "inputs": [],
      "name": "enterLottery",
      "outputs": [],
      "stateMutability": "payable",
      "type": "function"
    },
    {
      "inputs": [],
      "name": "i_callbackGasLimit",
      "outputs": [
        {
          "internalType": "uint32",
          "name": "",
          "type": "uint32"
        }
      ],
      "stateMutability": "view",
      "type": "function"
    },
    {
      "inputs": [],
      "name": "i_gasLane",
      "outputs": [
        {
          "internalType": "bytes32",
          "name": "",
          "type": "bytes32"
        }
      ],
      "stateMutability": "view",
      "type": "function"
    },
    {
      "inputs": [],
      "name": "i_interval",
      "outputs": [
        {
          "internalType": "uint256",
          "name": "",
          "type": "uint256"
        }
      ],
      "stateMutability": "view",
      "type": "function"
    },
    {
      "inputs": [],
      "name": "i_subscriptionId",
      "outputs": [
        {
          "internalType": "uint64",
          "name": "",
          "type": "uint64"
        }
      ],
      "stateMutability": "view",
      "type": "function"
    },
    {
      "inputs": [],
      "name": "i_vrfCoordinator",
      "outputs": [
        {
          "internalType": "contract VRFCoordinatorV2Interface",
          "name": "",
          "type": "address"
        }
      ],
      "stateMutability": "view",
      "type": "function"
    },
    {
      "inputs": [
        {
          "internalType": "bytes",
          "name": "",
          "type": "bytes"
        }
      ],
      "name": "performUpkeep",
      "outputs": [],
      "stateMutability": "nonpayable",
      "type": "function"
    },
    {
      "inputs": [
        {
          "internalType": "uint256",
          "name": "requestId",
          "type": "uint256"
        },
        {
          "internalType": "uint256[]",
          "name": "randomWords",
          "type": "uint256[]"
        }
      ],
      "name": "rawFulfillRandomWords",
      "outputs": [],
      "stateMutability": "nonpayable",
      "type": "function"
    },
    {
      "inputs": [],
      "name": "s_lastTimeStamp",
      "outputs": [
        {
          "internalType": "uint256",
          "name": "",
          "type": "uint256"
        }
      ],
      "stateMutability": "view",
      "type": "function"
    },
    {
      "inputs": [],
      "name": "s_lotteryState",
      "outputs": [
        {
          "internalType": "enum theLotteryContract.lotteryState",
          "name": "",
          "type": "uint8"
        }
      ],
      "stateMutability": "view",
      "type": "function"
    },
    {
      "inputs": [
        {
          "internalType": "uint256",
          "name": "",
          "type": "uint256"
        }
      ],
      "name": "s_players",
      "outputs": [
        {
          "internalType": "address payable",
          "name": "",
          "type": "address"
        }
      ],
      "stateMutability": "view",
      "type": "function"
    },
    {
      "inputs": [],
      "name": "s_recentWinner",
      "outputs": [
        {
          "internalType": "address",
          "name": "",
          "type": "address"
        }
      ],
      "stateMutability": "view",
      "type": "function"
    }
  ],
  "bytecode": "0x60e06040523480156200001157600080fd5b50604051620018c3380380620018c3833981810160405281019062000037919062000280565b838073ffffffffffffffffffffffffffffffffffffffff1660808173ffffffffffffffffffffffffffffffffffffffff1660601b8152505050856001819055508460a08181525050426003819055508373ffffffffffffffffffffffffffffffffffffffff1660c08173ffffffffffffffffffffffffffffffffffffffff1660601b815250508260048190555081600560006101000a81548167ffffffffffffffff021916908367ffffffffffffffff16021790555080600560086101000a81548163ffffffff021916908363ffffffff1602179055505050505050506200031c565b600080fd5b6000819050919050565b62000134816200011f565b81146200014057600080fd5b50565b600081519050620001548162000129565b92915050565b600073ffffffffffffffffffffffffffffffffffffffff82169050919050565b600062000187826200015a565b9050919050565b62000199816200017a565b8114620001a557600080fd5b50565b600081519050620001b9816200018e565b92915050565b6000819050919050565b620001d481620001bf565b8114620001e057600080fd5b50565b600081519050620001f481620001c9565b92915050565b600067ffffffffffffffff82169050919050565b6200021981620001fa565b81146200022557600080fd5b50565b60008151905062000239816200020e565b92915050565b600063ffffffff82169050919050565b6200025a816200023f565b81146200026657600080fd5b50565b6000815190506200027a816200024f565b92915050565b60008060008060008060c08789031215620002a0576200029f6200011a565b5b6000620002b089828a0162000143565b9650506020620002c389828a0162000143565b9550506040620002d689828a01620001a8565b9450506060620002e989828a01620001e3565b9350506080620002fc89828a0162000228565b92505060a06200030f89828a0162000269565b9150509295509295509295565b60805160601c60a05160c05160601c61155c62000367600039600081816104ba015261076801526000818161062801526106d401526000818161037401526103c8015261155c6000f3fe6080604052600436106100e85760003560e01c806372cf6e341161008a578063aebc455011610059578063aebc4550146102e7578063c1af578514610312578063d4c8c3731461031c578063d757d02714610347576100e8565b806372cf6e34146102295780638638b0c6146102545780638e879c8a1461027f578063ae771f6b146102aa576100e8565b8063470cdf97116100c6578063470cdf971461016a5780635e6c102e1461019557806367f082b0146101d35780636919207d146101fe576100e8565b80631fe543e3146100ed57806334854043146101165780634585e33b14610141575b600080fd5b3480156100f957600080fd5b50610114600480360381019061010f9190610d7c565b610372565b005b34801561012257600080fd5b5061012b610432565b6040516101389190610de7565b60405180910390f35b34801561014d57600080fd5b5061016860048036038101906101639190610e5d565b610438565b005b34801561017657600080fd5b5061017f6105cc565b60405161018c9190610ecd565b60405180910390f35b3480156101a157600080fd5b506101bc60048036038101906101b79190610f9d565b6105e6565b6040516101ca929190611089565b60405180910390f35b3480156101df57600080fd5b506101e86106cd565b6040516101f591906110d6565b60405180910390f35b34801561020a57600080fd5b506102136106d2565b6040516102209190610de7565b60405180910390f35b34801561023557600080fd5b5061023e6106f6565b60405161024b9190611110565b60405180910390f35b34801561026057600080fd5b506102696106fb565b604051610276919061116c565b60405180910390f35b34801561028b57600080fd5b50610294610721565b6040516102a191906111a0565b60405180910390f35b3480156102b657600080fd5b506102d160048036038101906102cc91906111bb565b610727565b6040516102de9190611209565b60405180910390f35b3480156102f357600080fd5b506102fc610766565b6040516103099190611283565b60405180910390f35b61031a61078a565b005b34801561032857600080fd5b506103316108d9565b60405161033e9190611315565b60405180910390f35b34801561035357600080fd5b5061035c6108ea565b6040516103699190611110565b60405180910390f35b7f000000000000000000000000000000000000000000000000000000000000000073ffffffffffffffffffffffffffffffffffffffff163373ffffffffffffffffffffffffffffffffffffffff161461042457337f00000000000000000000000000000000000000000000000000000000000000006040517f1cf993f400000000000000000000000000000000000000000000000000000000815260040161041b929190611330565b60405180910390fd5b61042e8282610900565b5050565b60035481565b6000610452604051806020016040528060008152506105e6565b5090508061048c576040517f078647e400000000000000000000000000000000000000000000000000000000815260040160405180910390fd5b60016000806101000a81548160ff021916908360018111156104b1576104b061129e565b5b021790555060007f000000000000000000000000000000000000000000000000000000000000000073ffffffffffffffffffffffffffffffffffffffff16635d3b1d30600454600560009054906101000a900467ffffffffffffffff166003600560089054906101000a900463ffffffff1660016040518663ffffffff1660e01b8152600401610545959493929190611359565b602060405180830381600087803b15801561055f57600080fd5b505af1158015610573573d6000803e3d6000fd5b505050506040513d601f19601f8201168201806040525081019061059791906113c1565b9050807febf56642252004c18a776f30d528e7a0ce8c5db14b6596fb6550f630c8a24c6c60405160405180910390a250505050565b600560009054906101000a900467ffffffffffffffff1681565b6000606060008060009054906101000a900460ff16600181111561060d5761060c61129e565b5b600060018111156106215761062061129e565b5b14905060007f000000000000000000000000000000000000000000000000000000000000000060035442610655919061141d565b119050600080471190506000806002805490501190508280156106755750835b801561067e5750815b80156106875750805b9550856040518060400160405280600381526020017f30783000000000000000000000000000000000000000000000000000000000008152509550955050505050915091565b600381565b7f000000000000000000000000000000000000000000000000000000000000000081565b600181565b6005600c9054906101000a900473ffffffffffffffffffffffffffffffffffffffff1681565b60045481565b6002818154811061073757600080fd5b906000526020600020016000915054906101000a900473ffffffffffffffffffffffffffffffffffffffff1681565b7f000000000000000000000000000000000000000000000000000000000000000081565b6001543410156107c6576040517f2ea82fd000000000000000000000000000000000000000000000000000000000815260040160405180910390fd5b600060018111156107da576107d961129e565b5b60008054906101000a900460ff1660018111156107fa576107f961129e565b5b14610831576040517fc1934d5300000000000000000000000000000000000000000000000000000000815260040160405180910390fd5b6002339080600181540180825580915050600190039060005260206000200160009091909190916101000a81548173ffffffffffffffffffffffffffffffffffffffff021916908373ffffffffffffffffffffffffffffffffffffffff1602179055503373ffffffffffffffffffffffffffffffffffffffff167f4c72b57c1ca715219cf2c7be9edc8a3ea19dfb9a76fb7a05e2a8062a027ee97060405160405180910390a2565b60008054906101000a900460ff1681565b600560089054906101000a900463ffffffff1681565b60006002805490508260008151811061091c5761091b611451565b5b602002602001015161092e91906114af565b905060006002828154811061094657610945611451565b5b9060005260206000200160009054906101000a900473ffffffffffffffffffffffffffffffffffffffff169050600067ffffffffffffffff81111561098e5761098d610c39565b5b6040519080825280602002602001820160405280156109bc5781602001602082028036833780820191505090505b50600290805190602001906109d2929190610b32565b5060008060006101000a81548160ff021916908360018111156109f8576109f761129e565b5b021790555042600381905550806005600c6101000a81548173ffffffffffffffffffffffffffffffffffffffff021916908373ffffffffffffffffffffffffffffffffffffffff16021790555060008173ffffffffffffffffffffffffffffffffffffffff1647604051610a6b90611511565b60006040518083038185875af1925050503d8060008114610aa8576040519150601f19603f3d011682016040523d82523d6000602084013e610aad565b606091505b5050905080610ae8576040517fe465903e00000000000000000000000000000000000000000000000000000000815260040160405180910390fd5b8173ffffffffffffffffffffffffffffffffffffffff167f794919b0f484b8e90b1b817ac7f880f846fbd8a9813dee2a378e820db094e3d160405160405180910390a25050505050565b828054828255906000526020600020908101928215610bab579160200282015b82811115610baa5782518260006101000a81548173ffffffffffffffffffffffffffffffffffffffff021916908373ffffffffffffffffffffffffffffffffffffffff16021790555091602001919060010190610b52565b5b509050610bb89190610bbc565b5090565b5b80821115610bd5576000816000905550600101610bbd565b5090565b6000604051905090565b600080fd5b600080fd5b6000819050919050565b610c0081610bed565b8114610c0b57600080fd5b50565b600081359050610c1d81610bf7565b92915050565b600080fd5b6000601f19601f8301169050919050565b7f4e487b7100000000000000000000000000000000000000000000000000000000600052604160045260246000fd5b610c7182610c28565b810181811067ffffffffffffffff82111715610c9057610c8f610c39565b5b80604052505050565b6000610ca3610bd9565b9050610caf8282610c68565b919050565b600067ffffffffffffffff821115610ccf57610cce610c39565b5b602082029050602081019050919050565b600080fd5b6000610cf8610cf384610cb4565b610c99565b90508083825260208201905060208402830185811115610d1b57610d1a610ce0565b5b835b81811015610d445780610d308882610c0e565b845260208401935050602081019050610d1d565b5050509392505050565b600082601f830112610d6357610d62610c23565b5b8135610d73848260208601610ce5565b91505092915050565b60008060408385031215610d9357610d92610be3565b5b6000610da185828601610c0e565b925050602083013567ffffffffffffffff811115610dc257610dc1610be8565b5b610dce85828601610d4e565b9150509250929050565b610de181610bed565b82525050565b6000602082019050610dfc6000830184610dd8565b92915050565b600080fd5b60008083601f840112610e1d57610e1c610c23565b5b8235905067ffffffffffffffff811115610e3a57610e39610e02565b5b602083019150836001820283011115610e5657610e55610ce0565b5b9250929050565b60008060208385031215610e7457610e73610be3565b5b600083013567ffffffffffffffff811115610e9257610e91610be8565b5b610e9e85828601610e07565b92509250509250929050565b600067ffffffffffffffff82169050919050565b610ec781610eaa565b82525050565b6000602082019050610ee26000830184610ebe565b92915050565b600080fd5b600067ffffffffffffffff821115610f0857610f07610c39565b5b610f1182610c28565b9050602081019050919050565b82818337600083830152505050565b6000610f40610f3b84610eed565b610c99565b905082815260208101848484011115610f5c57610f5b610ee8565b5b610f67848285610f1e565b509392505050565b600082601f830112610f8457610f83610c23565b5b8135610f94848260208601610f2d565b91505092915050565b600060208284031215610fb357610fb2610be3565b5b600082013567ffffffffffffffff811115610fd157610fd0610be8565b5b610fdd84828501610f6f565b91505092915050565b60008115159050919050565b610ffb81610fe6565b82525050565b600081519050919050565b600082825260208201905092915050565b60005b8381101561103b578082015181840152602081019050611020565b8381111561104a576000848401525b50505050565b600061105b82611001565b611065818561100c565b935061107581856020860161101d565b61107e81610c28565b840191505092915050565b600060408201905061109e6000830185610ff2565b81810360208301526110b08184611050565b90509392505050565b600061ffff82169050919050565b6110d0816110b9565b82525050565b60006020820190506110eb60008301846110c7565b92915050565b600063ffffffff82169050919050565b61110a816110f1565b82525050565b60006020820190506111256000830184611101565b92915050565b600073ffffffffffffffffffffffffffffffffffffffff82169050919050565b60006111568261112b565b9050919050565b6111668161114b565b82525050565b6000602082019050611181600083018461115d565b92915050565b6000819050919050565b61119a81611187565b82525050565b60006020820190506111b56000830184611191565b92915050565b6000602082840312156111d1576111d0610be3565b5b60006111df84828501610c0e565b91505092915050565b60006111f38261112b565b9050919050565b611203816111e8565b82525050565b600060208201905061121e60008301846111fa565b92915050565b6000819050919050565b600061124961124461123f8461112b565b611224565b61112b565b9050919050565b600061125b8261122e565b9050919050565b600061126d82611250565b9050919050565b61127d81611262565b82525050565b60006020820190506112986000830184611274565b92915050565b7f4e487b7100000000000000000000000000000000000000000000000000000000600052602160045260246000fd5b600281106112de576112dd61129e565b5b50565b60008190506112ef826112cd565b919050565b60006112ff826112e1565b9050919050565b61130f816112f4565b82525050565b600060208201905061132a6000830184611306565b92915050565b6000604082019050611345600083018561115d565b611352602083018461115d565b9392505050565b600060a08201905061136e6000830188611191565b61137b6020830187610ebe565b61138860408301866110c7565b6113956060830185611101565b6113a26080830184611101565b9695505050505050565b6000815190506113bb81610bf7565b92915050565b6000602082840312156113d7576113d6610be3565b5b60006113e5848285016113ac565b91505092915050565b7f4e487b7100000000000000000000000000000000000000000000000000000000600052601160045260246000fd5b600061142882610bed565b915061143383610bed565b925082821015611446576114456113ee565b5b828203905092915050565b7f4e487b7100000000000000000000000000000000000000000000000000000000600052603260045260246000fd5b7f4e487b7100000000000000000000000000000000000000000000000000000000600052601260045260246000fd5b60006114ba82610bed565b91506114c583610bed565b9250826114d5576114d4611480565b5b828206905092915050565b600081905092915050565b50565b60006114fb6000836114e0565b9150611506826114eb565b600082019050919050565b600061151c826114ee565b915081905091905056fea264697066735822122093ed5ded35f89bd134ccbff3c9919f1840d55a8a3748ec74274ffc1c0df2f0d064736f6c63430008080033",
  "linkReferences": {},
  "deployedLinkReferences": {}
}